{
  "contractName": "MultiSigWallet",
  "abi": [
    {
      "inputs": [
        {
          "internalType": "address[]",
          "name": "_owners",
          "type": "address[]"
        },
        {
          "internalType": "uint256",
          "name": "_confirmationCount",
          "type": "uint256"
        }
      ],
      "stateMutability": "nonpayable",
      "type": "constructor"
    },
    {
      "anonymous": false,
      "inputs": [
        {
          "indexed": false,
          "internalType": "uint256",
          "name": "value",
          "type": "uint256"
        }
      ],
      "name": "depositeConfirmed",
      "type": "event"
    },
    {
      "anonymous": false,
      "inputs": [
        {
          "indexed": false,
          "internalType": "uint256",
          "name": "_txnId",
          "type": "uint256"
        }
      ],
      "name": "transactionConfirmationRevoked",
      "type": "event"
    },
    {
      "anonymous": false,
      "inputs": [
        {
          "indexed": false,
          "internalType": "uint256",
          "name": "_txnId",
          "type": "uint256"
        }
      ],
      "name": "transactionConfirmed",
      "type": "event"
    },
    {
      "anonymous": false,
      "inputs": [
        {
          "indexed": false,
          "internalType": "uint256",
          "name": "_txnId",
          "type": "uint256"
        }
      ],
      "name": "transactionCreated",
      "type": "event"
    },
    {
      "inputs": [],
      "name": "confirmationCount",
      "outputs": [
        {
          "internalType": "uint256",
          "name": "",
          "type": "uint256"
        }
      ],
      "stateMutability": "view",
      "type": "function"
    },
    {
      "inputs": [
        {
          "internalType": "uint256",
          "name": "",
          "type": "uint256"
        },
        {
          "internalType": "address",
          "name": "",
          "type": "address"
        }
      ],
      "name": "isConfirmedBy",
      "outputs": [
        {
          "internalType": "bool",
          "name": "",
          "type": "bool"
        }
      ],
      "stateMutability": "view",
      "type": "function"
    },
    {
      "inputs": [
        {
          "internalType": "address",
          "name": "",
          "type": "address"
        }
      ],
      "name": "isOwner",
      "outputs": [
        {
          "internalType": "bool",
          "name": "",
          "type": "bool"
        }
      ],
      "stateMutability": "view",
      "type": "function"
    },
    {
      "inputs": [
        {
          "internalType": "uint256",
          "name": "",
          "type": "uint256"
        }
      ],
      "name": "owners",
      "outputs": [
        {
          "internalType": "address",
          "name": "",
          "type": "address"
        }
      ],
      "stateMutability": "view",
      "type": "function"
    },
    {
      "inputs": [
        {
          "internalType": "uint256",
          "name": "",
          "type": "uint256"
        }
      ],
      "name": "transactions",
      "outputs": [
        {
          "internalType": "address payable",
          "name": "to",
          "type": "address"
        },
        {
          "internalType": "uint256",
          "name": "value",
          "type": "uint256"
        },
        {
          "internalType": "uint256",
          "name": "confirmations",
          "type": "uint256"
        },
        {
          "internalType": "bool",
          "name": "executed",
          "type": "bool"
        }
      ],
      "stateMutability": "view",
      "type": "function"
    },
    {
      "inputs": [
        {
          "internalType": "uint256",
          "name": "_value",
          "type": "uint256"
        },
        {
          "internalType": "address payable",
          "name": "_to",
          "type": "address"
        }
      ],
      "name": "createTransaction",
      "outputs": [],
      "stateMutability": "nonpayable",
      "type": "function"
    },
    {
      "inputs": [
        {
          "internalType": "uint256",
          "name": "_txnId",
          "type": "uint256"
        }
      ],
      "name": "confirmTransaction",
      "outputs": [],
      "stateMutability": "nonpayable",
      "type": "function"
    },
    {
      "inputs": [
        {
          "internalType": "uint256",
          "name": "_txnId",
          "type": "uint256"
        }
      ],
      "name": "revokeTransactionConfirmation",
      "outputs": [],
      "stateMutability": "nonpayable",
      "type": "function"
    },
    {
      "inputs": [
        {
          "internalType": "uint256",
          "name": "_txnId",
          "type": "uint256"
        }
      ],
      "name": "approveTransaction",
      "outputs": [],
      "stateMutability": "nonpayable",
      "type": "function"
    },
    {
      "inputs": [],
      "name": "deposite",
      "outputs": [],
      "stateMutability": "payable",
      "type": "function"
    }
  ],
  "bytecode": "0x60806040523480156200001157600080fd5b5060405162001b1138038062001b118339818101604052810190620000379190620002d6565b60008251116200007e576040517f08c379a00000000000000000000000000000000000000000000000000000000081526004016200007590620003ac565b60405180910390fd5b6001811015801562000091575081518111155b620000d3576040517f08c379a0000000000000000000000000000000000000000000000000000000008152600401620000ca906200038a565b60405180910390fd5b60005b8251811015620001ea576000838281518110620000f857620000f762000528565b5b60200260200101519080600181540180825580915050600190039060005260206000200160009091909190916101000a81548173ffffffffffffffffffffffffffffffffffffffff021916908373ffffffffffffffffffffffffffffffffffffffff16021790555060018060008584815181106200017b576200017a62000528565b5b602002602001015173ffffffffffffffffffffffffffffffffffffffff1673ffffffffffffffffffffffffffffffffffffffff16815260200190815260200160002060006101000a81548160ff0219169083151502179055508080620001e190620004ab565b915050620000d6565b5080600281905550505062000657565b6000620002116200020b84620003f7565b620003ce565b905080838252602082019050828560208602820111156200023757620002366200058b565b5b60005b858110156200026b578162000250888262000275565b8452602084019350602083019250506001810190506200023a565b5050509392505050565b600081519050620002868162000623565b92915050565b600082601f830112620002a457620002a362000586565b5b8151620002b6848260208601620001fa565b91505092915050565b600081519050620002d0816200063d565b92915050565b60008060408385031215620002f057620002ef62000595565b5b600083015167ffffffffffffffff81111562000311576200031062000590565b5b6200031f858286016200028c565b92505060206200033285828601620002bf565b9150509250929050565b60006200034b60238362000426565b91506200035882620005ab565b604082019050919050565b600062000372601f8362000426565b91506200037f82620005fa565b602082019050919050565b60006020820190508181036000830152620003a5816200033c565b9050919050565b60006020820190508181036000830152620003c78162000363565b9050919050565b6000620003da620003ed565b9050620003e8828262000475565b919050565b6000604051905090565b600067ffffffffffffffff82111562000415576200041462000557565b5b602082029050602081019050919050565b600082825260208201905092915050565b600062000444826200044b565b9050919050565b600073ffffffffffffffffffffffffffffffffffffffff82169050919050565b6000819050919050565b62000480826200059a565b810181811067ffffffffffffffff82111715620004a257620004a162000557565b5b80604052505050565b6000620004b8826200046b565b91507fffffffffffffffffffffffffffffffffffffffffffffffffffffffffffffffff821415620004ee57620004ed620004f9565b5b600182019050919050565b7f4e487b7100000000000000000000000000000000000000000000000000000000600052601160045260246000fd5b7f4e487b7100000000000000000000000000000000000000000000000000000000600052603260045260246000fd5b7f4e487b7100000000000000000000000000000000000000000000000000000000600052604160045260246000fd5b600080fd5b600080fd5b600080fd5b600080fd5b6000601f19601f8301169050919050565b7f436f6e6669726d6174696f6e7320636f756e742076616c7565206e6f7420766160008201527f6c69640000000000000000000000000000000000000000000000000000000000602082015250565b7f54686572652073686f756c642062652061746c656173742031206f776e657200600082015250565b6200062e8162000437565b81146200063a57600080fd5b50565b62000648816200046b565b81146200065457600080fd5b50565b6114aa80620006676000396000f3fe6080604052600436106100915760003560e01c80638a8e784c116100595780638a8e784c1461018d5780639ace38c2146101ca578063a50ec3261461020a578063c01a8c8414610214578063f19195091461023d57610091565b8063025e7c2714610096578063242232d1146100d35780632f54bf6e146100fc5780637ac3e4e6146101395780637cf4c54314610164575b600080fd5b3480156100a257600080fd5b506100bd60048036038101906100b89190610dde565b610266565b6040516100ca9190610f99565b60405180910390f35b3480156100df57600080fd5b506100fa60048036038101906100f59190610dde565b6102a5565b005b34801561010857600080fd5b50610123600480360381019061011e9190610db1565b61057f565b6040516101309190610ff9565b60405180910390f35b34801561014557600080fd5b5061014e61059f565b60405161015b91906110d4565b60405180910390f35b34801561017057600080fd5b5061018b60048036038101906101869190610e4b565b6105a5565b005b34801561019957600080fd5b506101b460048036038101906101af9190610e0b565b61079f565b6040516101c19190610ff9565b60405180910390f35b3480156101d657600080fd5b506101f160048036038101906101ec9190610dde565b6107ce565b6040516102019493929190610fb4565b60405180910390f35b61021261083b565b005b34801561022057600080fd5b5061023b60048036038101906102369190610dde565b610874565b005b34801561024957600080fd5b50610264600480360381019061025f9190610dde565b610af3565b005b6000818154811061027657600080fd5b906000526020600020016000915054906101000a900473ffffffffffffffffffffffffffffffffffffffff1681565b600160003373ffffffffffffffffffffffffffffffffffffffff1673ffffffffffffffffffffffffffffffffffffffff16815260200190815260200160002060009054906101000a900460ff16610331576040517f08c379a000000000000000000000000000000000000000000000000000000000815260040161032890611094565b60405180910390fd5b600481815481106103455761034461126d565b5b9060005260206000209060040201600101544781111561039a576040517f08c379a000000000000000000000000000000000000000000000000000000000815260040161039190611054565b60405180910390fd5b81600481815481106103af576103ae61126d565b5b906000526020600020906004020160030160009054906101000a900460ff161561040e576040517f08c379a000000000000000000000000000000000000000000000000000000000815260040161040590611014565b60405180910390fd5b600254600484815481106104255761042461126d565b5b9060005260206000209060040201600201541015610478576040517f08c379a000000000000000000000000000000000000000000000000000000000815260040161046f90611034565b60405180910390fd5b6004838154811061048c5761048b61126d565b5b906000526020600020906004020160000160009054906101000a900473ffffffffffffffffffffffffffffffffffffffff1673ffffffffffffffffffffffffffffffffffffffff166108fc670de0b6b3a7640000600486815481106104f4576104f361126d565b5b9060005260206000209060040201600101546105109190611156565b9081150290604051600060405180830381858888f1935050505015801561053b573d6000803e3d6000fd5b506001600484815481106105525761055161126d565b5b906000526020600020906004020160030160006101000a81548160ff021916908315150217905550505050565b60016020528060005260406000206000915054906101000a900460ff1681565b60025481565b600160003373ffffffffffffffffffffffffffffffffffffffff1673ffffffffffffffffffffffffffffffffffffffff16815260200190815260200160002060009054906101000a900460ff16610631576040517f08c379a000000000000000000000000000000000000000000000000000000000815260040161062890611094565b60405180910390fd5b8147811115610675576040517f08c379a000000000000000000000000000000000000000000000000000000000815260040161066c90611054565b60405180910390fd5b60006004805490509050600460405180608001604052808573ffffffffffffffffffffffffffffffffffffffff1681526020018681526020016000815260200160001515815250908060018154018082558091505060019003906000526020600020906004020160009091909190915060008201518160000160006101000a81548173ffffffffffffffffffffffffffffffffffffffff021916908373ffffffffffffffffffffffffffffffffffffffff160217905550602082015181600101556040820151816002015560608201518160030160006101000a81548160ff02191690831515021790555050507f61423a8049ce29381d516b8cbe5a70bde2e01f2e8d96fda22a3d43dd032413ec8160405161079191906110d4565b60405180910390a150505050565b60036020528160005260406000206020528060005260406000206000915091509054906101000a900460ff1681565b600481815481106107de57600080fd5b90600052602060002090600402016000915090508060000160009054906101000a900473ffffffffffffffffffffffffffffffffffffffff16908060010154908060020154908060030160009054906101000a900460ff16905084565b7ff2ae918b3786af457de93be715a1acffe3d32eceec7a03987904518296a2943b3460405161086a91906110d4565b60405180910390a1565b600160003373ffffffffffffffffffffffffffffffffffffffff1673ffffffffffffffffffffffffffffffffffffffff16815260200190815260200160002060009054906101000a900460ff16610900576040517f08c379a00000000000000000000000000000000000000000000000000000000081526004016108f790611094565b60405180910390fd5b80600481815481106109155761091461126d565b5b906000526020600020906004020160030160009054906101000a900460ff1615610974576040517f08c379a000000000000000000000000000000000000000000000000000000000815260040161096b90611014565b60405180910390fd5b6003600083815260200190815260200160002060003373ffffffffffffffffffffffffffffffffffffffff1673ffffffffffffffffffffffffffffffffffffffff16815260200190815260200160002060009054906101000a900460ff1615610a12576040517f08c379a0000000000000000000000000000000000000000000000000000000008152600401610a09906110b4565b60405180910390fd5b60016003600084815260200190815260200160002060003373ffffffffffffffffffffffffffffffffffffffff1673ffffffffffffffffffffffffffffffffffffffff16815260200190815260200160002060006101000a81548160ff021916908315150217905550600160048381548110610a9157610a9061126d565b5b90600052602060002090600402016002016000828254610ab19190611100565b925050819055507f7aad8b13f97c2b6ecdb0159c23f5f72fa4456253b8142773798617da44cfb01682604051610ae791906110d4565b60405180910390a15050565b600160003373ffffffffffffffffffffffffffffffffffffffff1673ffffffffffffffffffffffffffffffffffffffff16815260200190815260200160002060009054906101000a900460ff16610b7f576040517f08c379a0000000000000000000000000000000000000000000000000000000008152600401610b7690611094565b60405180910390fd5b8060048181548110610b9457610b9361126d565b5b906000526020600020906004020160030160009054906101000a900460ff1615610bf3576040517f08c379a0000000000000000000000000000000000000000000000000000000008152600401610bea90611014565b60405180910390fd5b6003600083815260200190815260200160002060003373ffffffffffffffffffffffffffffffffffffffff1673ffffffffffffffffffffffffffffffffffffffff16815260200190815260200160002060009054906101000a900460ff1615610c91576040517f08c379a0000000000000000000000000000000000000000000000000000000008152600401610c8890611074565b60405180910390fd5b60006003600084815260200190815260200160002060003373ffffffffffffffffffffffffffffffffffffffff1673ffffffffffffffffffffffffffffffffffffffff16815260200190815260200160002060006101000a81548160ff021916908315150217905550600160048381548110610d1057610d0f61126d565b5b90600052602060002090600402016002016000828254610d3091906111b0565b925050819055507fd1d63b2b2fa43c7e2d8b60baa7ae9b87f37e5a8a7b18fdfecdbb5344ba2608c882604051610d6691906110d4565b60405180910390a15050565b600081359050610d818161142f565b92915050565b600081359050610d9681611446565b92915050565b600081359050610dab8161145d565b92915050565b600060208284031215610dc757610dc661129c565b5b6000610dd584828501610d72565b91505092915050565b600060208284031215610df457610df361129c565b5b6000610e0284828501610d9c565b91505092915050565b60008060408385031215610e2257610e2161129c565b5b6000610e3085828601610d9c565b9250506020610e4185828601610d72565b9150509250929050565b60008060408385031215610e6257610e6161129c565b5b6000610e7085828601610d9c565b9250506020610e8185828601610d87565b9150509250929050565b610e94816111f6565b82525050565b610ea3816111e4565b82525050565b610eb281611208565b82525050565b6000610ec5601c836110ef565b9150610ed0826112a1565b602082019050919050565b6000610ee8602e836110ef565b9150610ef3826112ca565b604082019050919050565b6000610f0b602d836110ef565b9150610f1682611319565b604082019050919050565b6000610f2e6025836110ef565b9150610f3982611368565b604082019050919050565b6000610f51601d836110ef565b9150610f5c826113b7565b602082019050919050565b6000610f746021836110ef565b9150610f7f826113e0565b604082019050919050565b610f9381611234565b82525050565b6000602082019050610fae6000830184610e9a565b92915050565b6000608082019050610fc96000830187610e8b565b610fd66020830186610f8a565b610fe36040830185610f8a565b610ff06060830184610ea9565b95945050505050565b600060208201905061100e6000830184610ea9565b92915050565b6000602082019050818103600083015261102d81610eb8565b9050919050565b6000602082019050818103600083015261104d81610edb565b9050919050565b6000602082019050818103600083015261106d81610efe565b9050919050565b6000602082019050818103600083015261108d81610f21565b9050919050565b600060208201905081810360008301526110ad81610f44565b9050919050565b600060208201905081810360008301526110cd81610f67565b9050919050565b60006020820190506110e96000830184610f8a565b92915050565b600082825260208201905092915050565b600061110b82611234565b915061111683611234565b9250827fffffffffffffffffffffffffffffffffffffffffffffffffffffffffffffffff0382111561114b5761114a61123e565b5b828201905092915050565b600061116182611234565b915061116c83611234565b9250817fffffffffffffffffffffffffffffffffffffffffffffffffffffffffffffffff04831182151516156111a5576111a461123e565b5b828202905092915050565b60006111bb82611234565b91506111c683611234565b9250828210156111d9576111d861123e565b5b828203905092915050565b60006111ef82611214565b9050919050565b600061120182611214565b9050919050565b60008115159050919050565b600073ffffffffffffffffffffffffffffffffffffffff82169050919050565b6000819050919050565b7f4e487b7100000000000000000000000000000000000000000000000000000000600052601160045260246000fd5b7f4e487b7100000000000000000000000000000000000000000000000000000000600052603260045260246000fd5b600080fd5b7f546869732074786e20697320616c726561647920657865637574656400000000600082015250565b7f546869732074786e206973206e6f7420636f6e6669726d656420627920656e6f60008201527f756768206f776e65727320796574000000000000000000000000000000000000602082015250565b7f5468657265206973206e6f7420656e697567682062616c616e636520696e207460008201527f68697320636f6e74726163742e00000000000000000000000000000000000000602082015250565b7f53656e6465722068617665276e7420636f6e6669726d6564207468697320747860008201527f6e20796574000000000000000000000000000000000000000000000000000000602082015250565b7f4f6e6c79206f776e65722063616e20646f207468697320616374696f6e000000600082015250565b7f53656e64657220616c726561647920636f6e6669726d6564207468697320747860008201527f6e00000000000000000000000000000000000000000000000000000000000000602082015250565b611438816111e4565b811461144357600080fd5b50565b61144f816111f6565b811461145a57600080fd5b50565b61146681611234565b811461147157600080fd5b5056fea2646970667358221220c849959ba56d8aca87ec1b39b70a11b39456c1bc6306067a90045d01d17ebd2864736f6c63430008070033",
  "immutableReferences": {},
  "source": "pragma solidity 0.8.7;\n\n//[\"0x5B38Da6a701c568545dCfcB03FcB875f56beddC4\", \"0xAb8483F64d9C6d1EcF9b849Ae677dD3315835cb2\", \"0x4B20993Bc481177ec7E8f571ceCaE8A9e22C02db\"]\ncontract MultiSigWallet {\n    address[] public owners;\n    mapping(address => bool) public isOwner;\n    uint256 public confirmationCount;\n    struct Transactions {\n        address payable to;\n        uint256 value;\n        uint256 confirmations;\n        bool executed;\n    }\n    mapping(uint256 => mapping(address => bool)) public isConfirmedBy;\n\n    Transactions[] public transactions;\n\n    constructor(address[] memory _owners, uint256 _confirmationCount) {\n        require(_owners.length > 0, \"There should be atleast 1 owner\");\n        require(\n            _confirmationCount >= 1 && _confirmationCount <= _owners.length,\n            \"Confirmations count value not valid\"\n        );\n        for (uint256 i = 0; i < _owners.length; i++) {\n            owners.push(_owners[i]);\n            isOwner[_owners[i]] = true;\n        }\n        confirmationCount = _confirmationCount;\n    }\n\n    modifier onlyOwner() {\n        require(isOwner[msg.sender], \"Only owner can do this action\");\n        _;\n    }\n\n    modifier balanceCheck(uint256 _value) {\n        require(\n            _value <= address(this).balance,\n            \"There is not eniugh balance in this contract.\"\n        );\n        _;\n    }\n\n    modifier checkTxnExecution(uint256 _txnId) {\n        require(!transactions[_txnId].executed, \"This txn is already executed\");\n        _;\n    }\n\n    event transactionCreated(uint256 _txnId);\n    event transactionConfirmed(uint256 _txnId);\n    event transactionConfirmationRevoked(uint256 _txnId);\n    event depositeConfirmed(uint256 value);\n\n    function createTransaction(uint256 _value, address payable _to)\n        external\n        onlyOwner\n        balanceCheck(_value)\n    {\n        uint256 txnId = transactions.length;\n        transactions.push(\n            Transactions({\n                to: _to,\n                value: _value,\n                confirmations: 0,\n                executed: false\n            })\n        );\n        emit transactionCreated(txnId);\n    }\n\n    function confirmTransaction(uint256 _txnId)\n        external\n        onlyOwner\n        checkTxnExecution(_txnId)\n    {\n        require(\n            !isConfirmedBy[_txnId][msg.sender],\n            \"Sender already confirmed this txn\"\n        );\n        isConfirmedBy[_txnId][msg.sender] = true;\n        transactions[_txnId].confirmations += 1;\n        emit transactionConfirmed(_txnId);\n    }\n\n    function revokeTransactionConfirmation(uint256 _txnId)\n        external\n        onlyOwner\n        checkTxnExecution(_txnId)\n    {\n        require(\n            !isConfirmedBy[_txnId][msg.sender],\n            \"Sender have'nt confirmed this txn yet\"\n        );\n        isConfirmedBy[_txnId][msg.sender] = false;\n        transactions[_txnId].confirmations -= 1;\n        emit transactionConfirmationRevoked(_txnId);\n    }\n\n    function approveTransaction(uint256 _txnId)\n        external\n        onlyOwner\n        balanceCheck(transactions[_txnId].value)\n        checkTxnExecution(_txnId)\n    {\n        require(\n            transactions[_txnId].confirmations >= confirmationCount,\n            \"This txn is not confirmed by enough owners yet\"\n        );\n        transactions[_txnId].to.transfer(transactions[_txnId].value * 1 ether);\n        transactions[_txnId].executed = true;\n    }\n\n    function deposite() external payable {\n        emit depositeConfirmed(msg.value);\n    }\n}\n",
  "sourcePath": "/Users/tushargupta/Desktop/Blockchain/multi_sig_wallet/contracts/MultiSigWallet.sol",
  "compiler": {
    "name": "solc",
    "version": "0.8.7+commit.e28d00a7.Emscripten.clang"
  },
  "schemaVersion": "3.4.5",
  "updatedAt": "2022-03-29T11:21:34.764Z",
  "devdoc": {
    "kind": "dev",
    "methods": {},
    "version": 1
  },
  "userdoc": {
    "kind": "user",
    "methods": {},
    "version": 1
  }
}